:020000040800F2
:100000001809002029020008590700084B060008BB
:1000100055070008550500083B10000800000000C7
:10002000000000000000000000000000710C00084B
:100030005905000800000000450B0008890D000864
:10004000430200084302000843020008430200087C
:10005000430200084302000843020008430200086C
:10006000430200084302000843020008430200085C
:10007000430200084302000843020008430200084C
:10008000430200084302000843020008430200083C
:10009000430200084302000843020008430200082C
:1000A000430200084302000843020008430200081C
:1000B000430200084302000843020008430200080C
:1000C00043020008430200084302000843020008FC
:1000D00043020008F50D000843020008430200082F
:1000E00043020008430200084302000843020008DC
:1000F00043020008430200084302000843020008CC
:1001000043020008430200084302000843020008BB
:1001100043020008430200084302000843020008AB
:10012000430200084302000843020008430200089B
:10013000430200084302000843020008430200088B
:10014000430200084302000843020008430200087B
:10015000430200084302000843020008430200086B
:10016000430200084302000843020008430200085B
:10017000430200084302000843020008430200084B
:10018000430200084302000800F002F800F03CF8C7
:100190000AA090E8000C82448344AAF10107DA45E2
:1001A00001D100F031F8AFF2090EBAE80F0013F0F8
:1001B000010F18BFFB1A43F001031847DC140000BD
:1001C000FC140000103A24BF78C878C1FAD852074E
:1001D00024BF30C830C144BF04680C6070470000C1
:1001E0000023002400250026103A28BF78C1FBD840
:1001F000520728BF30C148BF0B6070471FB501F0E0
:1002000045FA1FBD10B510BD00F072F91146FFF799
:10021000F5FF01F01BF900F090F903B4FFF7F2FFCE
:1002200003BC00F00CFF0000094880470948004764
:10023000FEE7FEE7FEE7FEE7FEE7FEE7FEE7FEE796
:10024000FEE7FEE704480549054A064B70470000F3
:100250008D0D0008890100081803002018090020EE
:1002600018050020180500207047032A40F230804E
:1002700010F0030C00F0158011F8013BBCF1020FE7
:10028000624498BF11F801CB00F8013B38BF11F868
:10029000013BA2F1040298BF00F801CB38BF00F87F
:1002A000013B11F0030300F06780083AC0F00880BA
:1002B00051F8043B083A51F804CBA0E80810F5E7E0
:1002C000121D5CBF51F8043B40F8043BAFF30080C3
:1002D000D20724BF11F8013B11F801CB48BF11F838
:1002E000012B24BF00F8013B00F801CB48BF00F808
:1002F000012B7047431A28BF9A427FF6B6AF032AF4
:100300001044114440F2268010F0030F1EBF11F874
:10031000013D521E00F8013D10F0030F7FF4F6AFCF
:1003200011F0030300F09380083AC0F00B8051F8FD
:10033000043D083A51F804CD40F8043D40F804CD9E
:10034000FFF7F3BF121D5CBF51F8043D40F8043DB8
:10035000AFF30080D20724BF11F8013D11F801CDA1
:1003600048BF11F8012C24BF00F8013D00F801CD71
:1003700048BF00F8012C704710B5203AC0F00B8040
:10038000B1E81850203AA0E81850B1E81850A0E899
:100390001850BFF4F5AF5FEA027C24BFB1E81850F3
:1003A000A0E8185044BF18C918C0BDE810405FEA63
:1003B000827C24BF51F8043B40F8043B08BF7047DF
:1003C000D20728BF31F8023B48BF11F8012B28BFE4
:1003D00020F8023B48BF00F8012B70474FF00002A5
:1003E0000429C0F0128010F0030C00F05C80CCF106
:1003F000040CBCF1020F18BF00F8012BA8BF20F8B5
:10040000022BA1EB0C0100F04EB85FEAC17C24BFC7
:1004100000F8012B00F8012B48BF00F8012B7047B2
:100420007047704770477047431A28BF9A427FF65B
:10043000A3AF104410F0030F11441EBF11F8013D8B
:10044000521E00F8013D10F0030F7FF4F6AF103A92
:10045000C0F00A8010B531E91850103A20E9185060
:10046000BFF4F9AFBDE81040530724BF31E90810CD
:1004700020E9081044BF51F8043D40F8043D12F053
:10048000030F08BF7047D20728BF31F8023D48BFAD
:1004900011F8012C28BF20F8023D48BF00F8012CBC
:1004A00070474FF0000200B5134694469646203937
:1004B00022BFA0E80C50A0E80C50B1F12001BFF41D
:1004C000F7AF090728BFA0E80C5048BF0CC05DF883
:1004D00004EB890028BF40F8042B08BF704748BFD1
:1004E00020F8022B11F0804F18BF00F8012B704745
:1004F000754600F02BF8AE4605006946534620F0DD
:100500000700854618B020B5FFF79CFEBDE82040E7
:100510004FF000064FF000074FF000084FF0000BBF
:1005200021F00701AC46ACE8C009ACE8C009ACE872
:10053000C009ACE8C0098D46704710B50446AFF35A
:1005400000802046BDE81040FFF767BE00487047B6
:10055000B402002000BFFEE77047F0B50A46002154
:100560000023002400BF3DE0012505FA01F31568D2
:1005700005EA03049C4234D105684F000326BE40BF
:10058000B543056015794E00B540066835430560F2
:100590001579012D02D01579022D16D185684F00ED
:1005A0000326BE40B543856055794E00B540866848
:1005B00035438560456801268E40B54345604568F2
:1005C00096798E40B6B235434560C5684F00032624
:1005D000BE40B543C560D5794E00B540C6683543C9
:1005E000C560491C1029BFD3F0BDF0B5002300241D
:1005F0004D07ED0E02FA05F3CE1000F1200555F877
:1006000026504E07F70E0F26BE40B543CF1000F11F
:10061000200646F82750CE1000F1200555F8265048
:1006200045EA0304CE1000F1200545F82640F0BD50
:100630000246002013690B400BB1012000E00020AE
:100640007047418370470183704700BFFEE7000099
:100650001CB50121112000F077FA10200090002035
:100660008DF8040003208DF8050001208DF80700A7
:1006700069460648FFF771FF0120009002208DF8BF
:10068000070069460248FFF768FF1CBD00100240E2
:100690000000024010B5044614B101201A49087048
:1006A00019480078F8B110211848FFF7C1FF28B1A8
:1006B00001211748FFF7BCFF012814D10A2000F0E0
:1006C00007FE00201049087010211048FFF7B0FF06
:1006D00008B9012010BD01210D48FFF7A9FF01282D
:1006E0000FD10220F6E710210848FFF7A1FF0128EB
:1006F00007D101210648FFF79BFF10B901200249ED
:1007000008700020E6E700002100002000100240F1
:10071000000002401CB50121202000F015FA4FF422
:100720000070009001208DF8040000208DF8060074
:1007300003208DF8050001208DF807006946044864
:10074000FFF70BFF4FF400710148FFF77CFF1CBD62
:100750000014024000BFFEE77047000070B50021A2
:1007600000230F22C4781CB3174C246804F4E064FF
:10077000C4F5E064C4F30721C1F10404E3B20A4103
:1007800044789C40E1B28478144021430C07210E48
:100790000E4C05786155047804F01F050124AC4027
:1007A00005786D11AD0005F1E025C5F8004109E0BF
:1007B000047804F01F050124AC40054D067876113D
:1007C00045F8264070BD00000CED00E000E400E0BC
:1007D00080E100E002490143024A116070470000D5
:1007E0000000FA050CED00E070B5002418E004F1FB
:1007F000B000002100F03EF90021084600F03AF96F
:100800000021102000F036F9002505E0012100202C
:1008100000F030F9681CC5B2802DF7DB601CC4B253
:10082000082CE4DB70BD10B5002106E0062200BFF5
:10083000131EA2F10102FBD1491C8142F6D310BD67
:1008400010B54FF400710C48FFF7FDFE4FF48071B6
:100850000948FFF7F8FE0120FFF7E5FF4FF40071AC
:100860000548FFF7EEFE0120FFF7DDFF4FF4807132
:100870000148FFF7E6FE10BD0004024010B54FF43A
:1008800080710C48FFF7DDFE4FF400710948FFF757
:10089000D8FE0120FFF7C7FF4FF480710548FFF72E
:1008A000D2FE4FF400710348FFF7CDFE0120FFF7A1
:1008B000BAFF10BD0004024010B54FF47A744FF433
:1008C00000711C48FFF7BFFE1A48006820F4402062
:1008D000184908600846006808600120FFF7A3FF78
:1008E0004FF480711348FFF7AEFE0120FFF79BFF26
:1008F00007E0601E80B2041E03D0FFF7BFFFFF2099
:1009000010BD4FF400710B48FFF792FE0028F0D1A4
:100910004FF480710748FFF794FE0648006820F402
:100920004020044908600846006840F480200860C0
:100930000020E5E7000402401CB504460121022026
:1009400000F002F94FF44070009003208DF805008C
:1009500000208DF8060001208DF804006946444807
:10096000FFF7FBFD4FF480714148FFF76CFE4FF439
:1009700000713F48FFF767FEC820FFF754FF0021D2
:10098000AE2000F077F80021084600F073F800214F
:10099000102000F06FF80021402000F06BF80021DB
:1009A000B02000F067F80021812000F063F80021FA
:1009B000FF2000F05FF844B90021A12000F05AF8B0
:1009C0000021C82000F056F807E00021A02000F028
:1009D00051F80021C02000F04DF80021A62000F0C1
:1009E00049F80021A82000F045F800213F2000F040
:1009F00041F80021D32000F03DF80021084600F026
:100A000039F80021D52000F035F80021802000F0D1
:100A100031F80021D82000F02DF80021052000F049
:100A200029F80021D92000F025F80021F12000F05C
:100A300021F80021DA2000F01DF80021122000F03A
:100A400019F80021DB2000F015F80021302000F01B
:100A500011F800218D2000F00DF80021142000F085
:100A600009F80021AF2000F005F8FFF7BDFE1CBD1E
:100A70000004024070B504460D461DB1E0B200F01E
:100A80004BF802E0E0B200F031F870BD70B50446FA
:100A90004FF480711448FFF7D4FD002521E004F0E5
:100AA000800028B14FF400710F48FFF7CCFD04E03F
:100AB0004FF400710C48FFF7C4FD6006040E0120DE
:100AC000FFF7B1FE4FF480710748FFF7BCFD01202E
:100AD000FFF7A9FE4FF480710348FFF7B2FD681CD1
:100AE000C5B2082DDBDB70BD0004024010B5044622
:100AF000FFF7A6FE7820FFF7C9FFFFF7DDFE002015
:100B0000FFF7C4FFFFF7D8FE2046FFF7BFFFFFF750
:100B1000D3FEFFF7B3FE10BD10B50446FFF790FEFD
:100B20007820FFF7B3FFFFF7C7FE4020FFF7AEFFC7
:100B3000FFF7C2FE2046FFF7A9FFFFF7BDFEFFF754
:100B40009DFE10BD7047000029B1064A126802439D
:100B5000044B1A6004E0034A12688243014B1A6096
:100B6000704700003038024029B1064A126802433B
:100B7000044B1A6004E0034A12688243014B1A6076
:100B80007047000044380240F0B5002100220024E4
:100B9000022500260223324F3F6807F00C0121B1E5
:100BA000042905D0082937D105E02E4F076036E02B
:100BB0002D4F076033E02A4F3F1F3F68C7F3805631
:100BC000274F3F1F3F6807F03F036EB1264FB7FB2B
:100BD000F3F7DFF88CC0ACF1040CDCF800C0CCF308
:100BE000881C07FB0CF40CE01E4FB7FBF3F7DFF893
:100BF00070C0ACF1040CDCF800C0CCF3881C07FB1F
:100C00000CF4174F3F1F3F68C7F301477F1C7D005F
:100C1000B4FBF5F7076002E0124F076000BF00BFAA
:100C20000F4F3F6807F0F0010909104F7A5C076821
:100C3000D74047600A4F3F6807F4E051890A0B4FDD
:100C40007A5C4768D7408760054F3F6807F460418A
:100C5000490B064F7A5C4768D740C760F0BD00007B
:100C6000083802400024F40000127A00000000203E
:100C7000704700000CB500200190009034480068D7
:100C800040F480303249086000BF3148006800F409
:100C9000003000900198401C0190009818B901980C
:100CA000B0F5A04FF1D12A48006800F4003010B12F
:100CB0000120009001E0002000900098012846D11A
:100CC00023484030006840F080502149403108609E
:100CD0002048006840F440401E4908601C48083025
:100CE00000681B49083108600846006840F400406D
:100CF00008600846006840F4A05008601648091FC4
:100D00000860081F006840F08070091F086000BF7D
:100D10000F48006800F000700028F9D040F205701C
:100D20000E4908600A480830006820F003000849AE
:100D3000083108600846006840F00200086000BF03
:100D400003480830006800F00C000828F8D10CBDFA
:100D5000003802400070004008544007003C024048
:100D6000042808D14FF0E021096941F004014FF057
:100D7000E022116107E04FF0E021096921F0040150
:100D80004FF0E022116170477047000010B5154820
:100D9000006840F47000134908601348006840F090
:100DA00001001149086000200F49083108600E4811
:100DB00000680E4908400C4908600D48091D08608C
:100DC000081F006820F48020091F086000200649E1
:100DD0000C310860FFF74EFF4FF000600149803989
:100DE000086010BD88ED00E000380240FFFFF6FE0D
:100DF0001030002470B540F22551144800F05FF81F
:100E000098B1124800F014F9C5B211480088401C8E
:100E1000C0F308040F480088844205D00E480C49EE
:100E2000098845540A48048000BF0821074800F09B
:100E300039F8012803D10821044800F00FF84FF4D5
:100E40005871024800F013F870BD00000010014016
:100E5000180000201A0000202400002001F4007275
:100E6000B2F5007F00D100BFCA430280704710B5C1
:100E70000022002340F66A14A14200D100BF0A12EA
:100E800001249440A3B2DC43048010BD21B18289C7
:100E900042F40052828104E082894DF6FF731A40C9
:100EA0008281704702460020B1F5007F00D100BF6B
:100EB00013880B400BB1012000E00020704770B593
:100EC0000246002400230025002040F66A16B142A5
:100ED00000D100BFC1F3421501F01F03012606FA3D
:100EE00003F3012D02D19689334006E0022D02D191
:100EF000168A334001E0968A33400C12012606FA26
:100F000004F41688344013B10CB1012000E0002035
:100F100070BDF0B50346002400260025002040F6F1
:100F20006A17B94200D100BF1846C1F3421401F05C
:100F30001F06012707FA06F5012C01D10C3004E049
:100F4000022C01D1103000E014301AB107682F4391
:100F5000076002E00768AF430760F0BD2DE9FF4777
:100F600005460E460024A14600BFA046B08900B148
:100F700000BF2C8A24F44054F08804432C82AC89AE
:100F800041F20C608443B088318908437189084379
:100F90000443AC81AC8A24F44074B0890443AC822D
:100FA0006846FFF7F1FD2048854202D01F48854280
:100FB00002D1DDF80C9001E0DDF80890A88900F47A
:100FC000004040B109EBC90000EB0910316849004D
:100FD000B0FBF1F707E009EBC90000EB091031683D
:100FE0008900B0FBF1F76420B7FBF0F004012009A1
:100FF000642101FB1078A88900F4004040B1322040
:1010000000EBC800B0FBF1F000F00700044308E07B
:10101000322000EB08106421B0FBF1F000F00F006B
:1010200004432C81BDE8FF870010014000140140FB
:1010300001468888C0F30800704700BFFEE700BF84
:101040007047000010B504460A480088844203DB5C
:1010500000200849088010BD06480088021B064889
:101060000119FFF747F903480088001B0149088070
:1010700000BFF0E71E0000206402002000200FE007
:101080009FED0B0A0B4901EB800181ED000A9FEDFA
:10109000080A094901EB800181ED000A411CC8B230
:1010A0000828EDDB0021054A1170054A11807047C0
:1010B0000000000024020020440200201C00002048
:1010C0001E00002010B58AB009E000F0B9FA1C49F2
:1010D0000A880988491C1A4B19801A49885400F05B
:1010E000A3FA002803DD164800884E28EDDB23E034
:1010F00000F07AF90446002C03DA00201049088039
:101100001BE0002C02DDA0B2FFF79CFF0C4800881A
:10111000272800DA11E028220A496846FFF72CF94F
:101120002720FFF78FFF684600F000FA00B903E0C0
:10113000684600F00FF900BFDAE700BF0AB010BD43
:101140001E0000206402002000B58BB0044901A8F5
:1011500000F0CEF9272101A800F082FA0BB000BD03
:10116000440200200120014908707047200000203F
:101170000149087070470000200000202F490978BD
:1011800001B97047002054E02D4901EB800191ED39
:10119000001A2C4901EB8001D1ED001A31EE610AF1
:1011A0009FED291AB4EEC10AF1EE10FA07DD9FEDAA
:1011B000271AB4EEC10AF1EE10FA00D237E09FED23
:1011C000241A20EE011AF0EE410AB7EE001AF4EEEE
:1011D000C10AF1EE10FA04DDB7EE001AF0EE410A92
:1011E0000AE0BFEE001AF4EEC10AF1EE10FA03D2E3
:1011F000BFEE001AF0EE410A114901EB800191EDBA
:10120000001A104901EB8001D1ED001A71EE611A4C
:101210000C4901EB800191ED001A9FED0E2A01EEC1
:10122000821A084901EB800181ED001A00BF411CC0
:10123000C8B20828A8DB00BFA3E7000020000020F8
:101240002402002044020020ACC527B7ACC52737D4
:101250000AD7233CCDCC4C3D30B502460B464FF669
:10126000FF70002112E0555C684000240AE000F0A5
:10127000010525B14AF2010585EA600000E0401051
:10128000651CECB2082CF2DB4D1CA9B29942EADBDA
:1012900030BD000010B504466FF00400FFF760FD9C
:1012A000E11704EB5171C1F3C701074A11701046F1
:1012B000007800EB4001C1EBC0104FF6FF7101EA6E
:1012C000C0000249088010BD10000020120000205C
:1012D00070B504464FF4077094FBF0F0C6B24FF4BB
:1012E000077094FBF0F100FB114085B205E04FF46C
:1012F000077000F009F8701EC6B2002EF7D115B1C4
:10130000284600F001F870BD0146114A12884A4390
:101310004FF0E0235A6100229A611A46126942F0A6
:1013200001021A6100BF4FF0E022106900F00102D3
:101330001AB100F48032002AF5D04FF0E022126991
:1013400022F001024FF0E0231A6100229A617047F7
:101350001200002070B592B00546284600F0DAF879
:101360000646012E04D0022E21D0032E33D129E0CF
:101370006946284600F0D1F800240BE0684600EBEF
:10138000840090ED000A164800EB840080ED000A0E
:10139000601CC4B2082CF1DB0120FFF7E9FE08A8AD
:1013A00000F09AF8272108A800F05AF914E000206C
:1013B000FFF7DEFE08A800F08FF8272108A800F04C
:1013C0004FF909E0074908A800F092F8272108A87A
:1013D00000F046F900E000BF00BF12B070BD000091
:1013E000240200204402002000210CE00A48405C56
:1013F000AA2806D1084A481C105C552801D108B219
:101400007047481C81B2481C044A12889042EDDBA8
:101410004FF0FF30F4E70000640200201E000020BF
:1014200030B50446AA202070552060702321204644
:10143000FFF712FF054604F8235F281260700D20A5
:10144000A0700A20E070233C30BD0000002500267B
:101450004FF4A060FFF7BEF9A820FFF71BFF4FF481
:10146000E13000F089F80020FFF766FAFFF752F943
:10147000FFF7EEF8FFF702FEFFF774FE01201549B3
:10148000086026E00020FFF705F90446012C07D18B
:1014900001260020FFF76CFE00200E49086008E0DE
:1014A000022C06D100260120FFF762FE0120094927
:1014B0000860FFF707FE0EB9FFF760FE681C80B2F8
:1014C0000546322802DB0025FFF73EFE0120FFF72C
:1014D000FFFED7E7A482424210B5044627212046EA
:1014E000FEF77CFF8120A0702046FFF799FF10BD1A
:1014F00070B504460D4627212046FEF76FFFA12058
:10150000A07020222946E01CFEF7AFFE2046FFF720
:1015100087FF70BD01468878704770B505460C4658
:101520002022E91C2046FEF7A0FE70BD70B50446DF
:101530002078AA2802D16078552801D0002070BDFB
:1015400094F825000D2803D194F826000A2801D02C
:101550000020F4E794F8230094F8241040EA0126D0
:1015600023212046FFF778FE0546AE4201D1012037
:10157000E5E70020E3E7000010B588B0044601214C
:101580000846FFF7E1FA01211020FFF7EDFA0722E4
:1015900009212348FFF729F807220A212048FFF7ED
:1015A00024F84FF4C060069002208DF81C008DF8DE
:1015B0001D0000208DF81E0001208DF81F0006A9D7
:1015C0001748FEF7CAFF02940020ADF80C00ADF8F2
:1015D0000E00ADF81000ADF814000C20ADF81200AC
:1015E00002A91048FFF7BAFC01210E48FFF74EFC94
:1015F000012240F225510B48FFF78BFC25208DF886
:10160000040003208DF8050000208DF8060001205D
:101610008DF8070001A8FFF7A1F808B010BD000081
:101620000000024000100140034800880349098877
:10163000401AC0F308007047180000201A0000206C
:101640000549064A1288885C04490988491CC1F387
:101650000801024A11807047240000201A0000206F
:1016600010B5024600200BE000BF074B1B8803F0BB
:101670004003002BF9D0135C034CA380431C98B2A9
:101680008842F1DB10BD0000001001404FF04070B7
:10169000E1EE100A70470000B816000800000020B4
:1016A00024000000C4010008DC160008240000200B
:1016B000F4080000E001000800000000010203043B
:1016C00001020304060708090000000000000000F2
:0C16D0000000000000000000010100000C
:040000050800018965
:00000001FF
